{
  "contractName": "Todo",
  "abi": [
    {
      "inputs": [],
      "payable": false,
      "stateMutability": "nonpayable",
      "type": "constructor"
    },
    {
      "anonymous": false,
      "inputs": [
        {
          "indexed": false,
          "internalType": "uint256",
          "name": "",
          "type": "uint256"
        },
        {
          "indexed": false,
          "internalType": "uint256",
          "name": "",
          "type": "uint256"
        },
        {
          "indexed": false,
          "internalType": "string",
          "name": "",
          "type": "string"
        },
        {
          "indexed": false,
          "internalType": "string",
          "name": "",
          "type": "string"
        }
      ],
      "name": "TaskCreated",
      "type": "event"
    },
    {
      "constant": true,
      "inputs": [],
      "name": "lastTaskId",
      "outputs": [
        {
          "internalType": "uint256",
          "name": "",
          "type": "uint256"
        }
      ],
      "payable": false,
      "stateMutability": "view",
      "type": "function"
    },
    {
      "constant": true,
      "inputs": [
        {
          "internalType": "uint256",
          "name": "",
          "type": "uint256"
        }
      ],
      "name": "tasks",
      "outputs": [
        {
          "internalType": "uint256",
          "name": "id",
          "type": "uint256"
        },
        {
          "internalType": "uint256",
          "name": "date",
          "type": "uint256"
        },
        {
          "internalType": "string",
          "name": "content",
          "type": "string"
        },
        {
          "internalType": "string",
          "name": "author",
          "type": "string"
        },
        {
          "internalType": "bool",
          "name": "done",
          "type": "bool"
        }
      ],
      "payable": false,
      "stateMutability": "view",
      "type": "function"
    },
    {
      "constant": false,
      "inputs": [
        {
          "internalType": "string",
          "name": "_content",
          "type": "string"
        },
        {
          "internalType": "string",
          "name": "_author",
          "type": "string"
        }
      ],
      "name": "createTask",
      "outputs": [],
      "payable": false,
      "stateMutability": "nonpayable",
      "type": "function"
    },
    {
      "constant": true,
      "inputs": [
        {
          "internalType": "uint256",
          "name": "_id",
          "type": "uint256"
        }
      ],
      "name": "getTask",
      "outputs": [
        {
          "components": [
            {
              "internalType": "uint256",
              "name": "id",
              "type": "uint256"
            },
            {
              "internalType": "uint256",
              "name": "date",
              "type": "uint256"
            },
            {
              "internalType": "string",
              "name": "content",
              "type": "string"
            },
            {
              "internalType": "string",
              "name": "author",
              "type": "string"
            },
            {
              "internalType": "bool",
              "name": "done",
              "type": "bool"
            }
          ],
          "internalType": "struct Todo.Task",
          "name": "",
          "type": "tuple"
        }
      ],
      "payable": false,
      "stateMutability": "view",
      "type": "function"
    },
    {
      "constant": true,
      "inputs": [],
      "name": "getTaskIds",
      "outputs": [
        {
          "internalType": "uint256[]",
          "name": "",
          "type": "uint256[]"
        }
      ],
      "payable": false,
      "stateMutability": "view",
      "type": "function"
    }
  ],
  "bytecode": "0x608060405234801561001057600080fd5b5060008081905550610c27806100276000396000f3fe608060405234801561001057600080fd5b50600436106100575760003560e01c80631d65e77e1461005c578063292a45851461008c5780636d488b6a146100a85780638d977672146100c6578063bcd14805146100fa575b600080fd5b61007660048036036100719190810190610784565b610118565b60405161008391906109a9565b60405180910390f35b6100a660048036036100a19190810190610718565b6102d5565b005b6100b0610408565b6040516100bd91906109cb565b60405180910390f35b6100e060048036036100db9190810190610784565b61040e565b6040516100f1959493929190610a39565b60405180910390f35b610102610581565b60405161010f9190610987565b60405180910390f35b6101206105d9565b6001600054038211806101335750600082105b1561013d57600080fd5b600260008381526020019081526020016000206040518060a00160405290816000820154815260200160018201548152602001600282018054600181600116156101000203166002900480601f0160208091040260200160405190810160405280929190818152602001828054600181600116156101000203166002900480156102085780601f106101dd57610100808354040283529160200191610208565b820191906000526020600020905b8154815290600101906020018083116101eb57829003601f168201915b50505050508152602001600382018054600181600116156101000203166002900480601f0160208091040260200160405190810160405280929190818152602001828054600181600116156101000203166002900480156102aa5780601f1061027f576101008083540402835291602001916102aa565b820191906000526020600020905b81548152906001019060200180831161028d57829003601f168201915b505050505081526020016004820160009054906101000a900460ff1615151515815250509050919050565b6040518060a0016040528060005481526020014281526020018381526020018281526020016000151581525060026000805481526020019081526020016000206000820151816000015560208201518160010155604082015181600201908051906020019061034592919061060a565b50606082015181600301908051906020019061036292919061060a565b5060808201518160040160006101000a81548160ff021916908315150217905550905050600160005490806001815401808255809150509060018203906000526020600020016000909192909190915055507f211bf15b7962b0fd1e5b3308db0d9c6e0b9bb758c934b8c9345201b1892481b86000544284846040516103eb94939291906109e6565b60405180910390a160008081548092919060010191905055505050565b60005481565b6002602052806000526040600020600091509050806000015490806001015490806002018054600181600116156101000203166002900480601f0160208091040260200160405190810160405280929190818152602001828054600181600116156101000203166002900480156104c65780601f1061049b576101008083540402835291602001916104c6565b820191906000526020600020905b8154815290600101906020018083116104a957829003601f168201915b505050505090806003018054600181600116156101000203166002900480601f0160208091040260200160405190810160405280929190818152602001828054600181600116156101000203166002900480156105645780601f1061053957610100808354040283529160200191610564565b820191906000526020600020905b81548152906001019060200180831161054757829003601f168201915b5050505050908060040160009054906101000a900460ff16905085565b606060018054806020026020016040519081016040528092919081815260200182805480156105cf57602002820191906000526020600020905b8154815260200190600101908083116105bb575b5050505050905090565b6040518060a00160405280600081526020016000815260200160608152602001606081526020016000151581525090565b828054600181600116156101000203166002900490600052602060002090601f016020900481019282601f1061064b57805160ff1916838001178555610679565b82800160010185558215610679579182015b8281111561067857825182559160200191906001019061065d565b5b509050610686919061068a565b5090565b6106ac91905b808211156106a8576000816000905550600101610690565b5090565b90565b600082601f8301126106c057600080fd5b81356106d36106ce82610ac7565b610a9a565b915080825260208301602083018583830111156106ef57600080fd5b6106fa838284610b7a565b50505092915050565b60008135905061071281610bcd565b92915050565b6000806040838503121561072b57600080fd5b600083013567ffffffffffffffff81111561074557600080fd5b610751858286016106af565b925050602083013567ffffffffffffffff81111561076e57600080fd5b61077a858286016106af565b9150509250929050565b60006020828403121561079657600080fd5b60006107a484828501610703565b91505092915050565b60006107b98383610969565b60208301905092915050565b60006107d082610b03565b6107da8185610b31565b93506107e583610af3565b8060005b838110156108165781516107fd88826107ad565b975061080883610b24565b9250506001810190506107e9565b5085935050505092915050565b61082c81610b64565b82525050565b61083b81610b64565b82525050565b600061084c82610b19565b6108568185610b53565b9350610866818560208601610b89565b61086f81610bbc565b840191505092915050565b600061088582610b0e565b61088f8185610b42565b935061089f818560208601610b89565b6108a881610bbc565b840191505092915050565b60006108be82610b0e565b6108c88185610b53565b93506108d8818560208601610b89565b6108e181610bbc565b840191505092915050565b600060a0830160008301516109046000860182610969565b5060208301516109176020860182610969565b506040830151848203604086015261092f828261087a565b91505060608301518482036060860152610949828261087a565b915050608083015161095e6080860182610823565b508091505092915050565b61097281610b70565b82525050565b61098181610b70565b82525050565b600060208201905081810360008301526109a181846107c5565b905092915050565b600060208201905081810360008301526109c381846108ec565b905092915050565b60006020820190506109e06000830184610978565b92915050565b60006080820190506109fb6000830187610978565b610a086020830186610978565b8181036040830152610a1a8185610841565b90508181036060830152610a2e8184610841565b905095945050505050565b600060a082019050610a4e6000830188610978565b610a5b6020830187610978565b8181036040830152610a6d81866108b3565b90508181036060830152610a8181856108b3565b9050610a906080830184610832565b9695505050505050565b6000604051905081810181811067ffffffffffffffff82111715610abd57600080fd5b8060405250919050565b600067ffffffffffffffff821115610ade57600080fd5b601f19601f8301169050602081019050919050565b6000819050602082019050919050565b600081519050919050565b600081519050919050565b600081519050919050565b6000602082019050919050565b600082825260208201905092915050565b600082825260208201905092915050565b600082825260208201905092915050565b60008115159050919050565b6000819050919050565b82818337600083830152505050565b60005b83811015610ba7578082015181840152602081019050610b8c565b83811115610bb6576000848401525b50505050565b6000601f19601f8301169050919050565b610bd681610b70565b8114610be157600080fd5b5056fea365627a7a723158205509c9b27b6cce78be091688499720b5aa89c23d99a0beec6999f4aaba5b257b6c6578706572696d656e74616cf564736f6c63430005100040",
  "source": "//SPDX-License-Identifier: UNLICENSED\r\npragma experimental ABIEncoderV2;\r\npragma solidity 0.5.16;\r\n\r\ncontract Todo{\r\n\r\n  struct Task{\r\n    uint id;\r\n    uint date;\r\n    string content;\r\n    string author;\r\n    bool done;\r\n  }\r\n\r\n  uint public lastTaskId;\r\n  uint[] taskIds;\r\n  mapping(uint=>Task) public  tasks;\r\n  event TaskCreated(uint,uint,string,string);\r\n\r\n  constructor() public{\r\n    lastTaskId=0;\r\n  }\r\n\r\n  function createTask(string memory _content,string memory _author) public {\r\n    tasks[lastTaskId]=Task(lastTaskId,block.timestamp,_content,_author,false);\r\n    taskIds.push(lastTaskId);\r\n    emit TaskCreated(lastTaskId,block.timestamp,_content,_author);\r\n    lastTaskId++;\r\n  }\r\n\r\n  function getTask(uint _id) public view returns(Task memory){\r\n    if(_id > lastTaskId - 1  || _id < 0){\r\n      revert();\r\n    }\r\n    return tasks[_id];\r\n  }\r\n\r\n  function getTaskIds() public view returns(uint[] memory){\r\n    return taskIds;\r\n  }\r\n}\r\n",
  "sourcePath": "C:\\Users\\ACT\\Desktop\\react-DTodo\\contracts\\Todo.sol",
  "compiler": {
    "name": "solc",
    "version": "0.5.16+commit.9c3226ce.Emscripten.clang"
  },
  "schemaVersion": "3.4.4",
  "updatedAt": "2022-02-07T09:40:41.200Z",
  "networkType": "ethereum",
  "devdoc": {
    "methods": {}
  },
  "userdoc": {
    "methods": {}
  }
}