{
  "contractName": "Todo",
  "abi": [
    {
      "inputs": [],
      "payable": false,
      "stateMutability": "nonpayable",
      "type": "constructor"
    },
    {
      "anonymous": false,
      "inputs": [
        {
          "indexed": false,
          "internalType": "uint256",
          "name": "",
          "type": "uint256"
        },
        {
          "indexed": false,
          "internalType": "uint256",
          "name": "",
          "type": "uint256"
        },
        {
          "indexed": false,
          "internalType": "string",
          "name": "",
          "type": "string"
        },
        {
          "indexed": false,
          "internalType": "string",
          "name": "",
          "type": "string"
        }
      ],
      "name": "TaskCreated",
      "type": "event"
    },
    {
      "constant": true,
      "inputs": [],
      "name": "lastTaskId",
      "outputs": [
        {
          "internalType": "uint256",
          "name": "",
          "type": "uint256"
        }
      ],
      "payable": false,
      "stateMutability": "view",
      "type": "function"
    },
    {
      "constant": true,
      "inputs": [
        {
          "internalType": "uint256",
          "name": "",
          "type": "uint256"
        }
      ],
      "name": "tasks",
      "outputs": [
        {
          "internalType": "uint256",
          "name": "id",
          "type": "uint256"
        },
        {
          "internalType": "uint256",
          "name": "date",
          "type": "uint256"
        },
        {
          "internalType": "string",
          "name": "content",
          "type": "string"
        },
        {
          "internalType": "string",
          "name": "author",
          "type": "string"
        },
        {
          "internalType": "bool",
          "name": "done",
          "type": "bool"
        },
        {
          "internalType": "bool",
          "name": "updated",
          "type": "bool"
        }
      ],
      "payable": false,
      "stateMutability": "view",
      "type": "function"
    },
    {
      "constant": false,
      "inputs": [
        {
          "internalType": "string",
          "name": "_content",
          "type": "string"
        },
        {
          "internalType": "string",
          "name": "_author",
          "type": "string"
        }
      ],
      "name": "createTask",
      "outputs": [],
      "payable": false,
      "stateMutability": "nonpayable",
      "type": "function"
    },
    {
      "constant": true,
      "inputs": [
        {
          "internalType": "uint256",
          "name": "_id",
          "type": "uint256"
        }
      ],
      "name": "getTask",
      "outputs": [
        {
          "internalType": "uint256",
          "name": "",
          "type": "uint256"
        },
        {
          "internalType": "uint256",
          "name": "",
          "type": "uint256"
        },
        {
          "internalType": "string",
          "name": "",
          "type": "string"
        },
        {
          "internalType": "string",
          "name": "",
          "type": "string"
        },
        {
          "internalType": "bool",
          "name": "",
          "type": "bool"
        },
        {
          "internalType": "bool",
          "name": "",
          "type": "bool"
        }
      ],
      "payable": false,
      "stateMutability": "view",
      "type": "function"
    },
    {
      "constant": true,
      "inputs": [],
      "name": "getTaskIds",
      "outputs": [
        {
          "internalType": "uint256[]",
          "name": "",
          "type": "uint256[]"
        }
      ],
      "payable": false,
      "stateMutability": "view",
      "type": "function"
    },
    {
      "constant": false,
      "inputs": [
        {
          "internalType": "uint256",
          "name": "_id",
          "type": "uint256"
        }
      ],
      "name": "done",
      "outputs": [],
      "payable": false,
      "stateMutability": "nonpayable",
      "type": "function"
    },
    {
      "constant": false,
      "inputs": [
        {
          "internalType": "uint256",
          "name": "_id",
          "type": "uint256"
        },
        {
          "internalType": "string",
          "name": "_content",
          "type": "string"
        }
      ],
      "name": "update",
      "outputs": [],
      "payable": false,
      "stateMutability": "nonpayable",
      "type": "function"
    }
  ],
  "bytecode": "0x608060405234801561001057600080fd5b5060008081905550610dbf806100276000396000f3fe608060405234801561001057600080fd5b506004361061007d5760003560e01c80636d488b6a1161005b5780636d488b6a146100ef5780638d9776721461010d578063bcd1480514610142578063f745630f146101605761007d565b80631d65e77e14610082578063292a4585146100b757806358a743c7146100d3575b600080fd5b61009c60048036036100979190810190610943565b61017c565b6040516100ae96959493929190610b65565b60405180910390f35b6100d160048036036100cc91908101906108d7565b61035e565b005b6100ed60048036036100e89190810190610943565b6104ba565b005b6100f76104ec565b6040516101049190610af7565b60405180910390f35b61012760048036036101229190810190610943565b6104f2565b60405161013996959493929190610bd4565b60405180910390f35b61014a610678565b6040516101579190610ad5565b60405180910390f35b61017a6004803603610175919081019061096c565b6106d0565b005b600080606080600080866002600089815260200190815260200160002060010154600260008a8152602001908152602001600020600201600260008b8152602001908152602001600020600301600260008c815260200190815260200160002060040160009054906101000a900460ff16600260008d815260200190815260200160002060040160019054906101000a900460ff16838054600181600116156101000203166002900480601f0160208091040260200160405190810160405280929190818152602001828054600181600116156101000203166002900480156102a65780601f1061027b576101008083540402835291602001916102a6565b820191906000526020600020905b81548152906001019060200180831161028957829003601f168201915b50505050509350828054600181600116156101000203166002900480601f0160208091040260200160405190810160405280929190818152602001828054600181600116156101000203166002900480156103425780601f1061031757610100808354040283529160200191610342565b820191906000526020600020905b81548152906001019060200180831161032557829003601f168201915b5050505050925095509550955095509550955091939550919395565b6040518060c001604052806000548152602001428152602001838152602001828152602001600015158152602001600015158152506002600080548152602001908152602001600020600082015181600001556020820151816001015560408201518160020190805190602001906103d7929190610749565b5060608201518160030190805190602001906103f4929190610749565b5060808201518160040160006101000a81548160ff02191690831515021790555060a08201518160040160016101000a81548160ff021916908315150217905550905050600160005490806001815401808255809150509060018203906000526020600020016000909192909190915055507f211bf15b7962b0fd1e5b3308db0d9c6e0b9bb758c934b8c9345201b1892481b860005442848460405161049d9493929190610b12565b60405180910390a160008081548092919060010191905055505050565b60016002600083815260200190815260200160002060040160006101000a81548160ff02191690831515021790555050565b60005481565b6002602052806000526040600020600091509050806000015490806001015490806002018054600181600116156101000203166002900480601f0160208091040260200160405190810160405280929190818152602001828054600181600116156101000203166002900480156105aa5780601f1061057f576101008083540402835291602001916105aa565b820191906000526020600020905b81548152906001019060200180831161058d57829003601f168201915b505050505090806003018054600181600116156101000203166002900480601f0160208091040260200160405190810160405280929190818152602001828054600181600116156101000203166002900480156106485780601f1061061d57610100808354040283529160200191610648565b820191906000526020600020905b81548152906001019060200180831161062b57829003601f168201915b5050505050908060040160009054906101000a900460ff16908060040160019054906101000a900460ff16905086565b606060018054806020026020016040519081016040528092919081815260200182805480156106c657602002820191906000526020600020905b8154815260200190600101908083116106b2575b5050505050905090565b806002600084815260200190815260200160002060020190805190602001906106fa9291906107c9565b5042600260008481526020019081526020016000206001018190555060016002600084815260200190815260200160002060040160016101000a81548160ff0219169083151502179055505050565b828054600181600116156101000203166002900490600052602060002090601f016020900481019282601f1061078a57805160ff19168380011785556107b8565b828001600101855582156107b8579182015b828111156107b757825182559160200191906001019061079c565b5b5090506107c59190610849565b5090565b828054600181600116156101000203166002900490600052602060002090601f016020900481019282601f1061080a57805160ff1916838001178555610838565b82800160010185558215610838579182015b8281111561083757825182559160200191906001019061081c565b5b5090506108459190610849565b5090565b61086b91905b8082111561086757600081600090555060010161084f565b5090565b90565b600082601f83011261087f57600080fd5b813561089261088d82610c70565b610c43565b915080825260208301602083018583830111156108ae57600080fd5b6108b9838284610d12565b50505092915050565b6000813590506108d181610d65565b92915050565b600080604083850312156108ea57600080fd5b600083013567ffffffffffffffff81111561090457600080fd5b6109108582860161086e565b925050602083013567ffffffffffffffff81111561092d57600080fd5b6109398582860161086e565b9150509250929050565b60006020828403121561095557600080fd5b6000610963848285016108c2565b91505092915050565b6000806040838503121561097f57600080fd5b600061098d858286016108c2565b925050602083013567ffffffffffffffff8111156109aa57600080fd5b6109b68582860161086e565b9150509250929050565b60006109cc8383610ab7565b60208301905092915050565b60006109e382610cac565b6109ed8185610cda565b93506109f883610c9c565b8060005b83811015610a29578151610a1088826109c0565b9750610a1b83610ccd565b9250506001810190506109fc565b5085935050505092915050565b610a3f81610cfc565b82525050565b6000610a5082610cc2565b610a5a8185610ceb565b9350610a6a818560208601610d21565b610a7381610d54565b840191505092915050565b6000610a8982610cb7565b610a938185610ceb565b9350610aa3818560208601610d21565b610aac81610d54565b840191505092915050565b610ac081610d08565b82525050565b610acf81610d08565b82525050565b60006020820190508181036000830152610aef81846109d8565b905092915050565b6000602082019050610b0c6000830184610ac6565b92915050565b6000608082019050610b276000830187610ac6565b610b346020830186610ac6565b8181036040830152610b468185610a45565b90508181036060830152610b5a8184610a45565b905095945050505050565b600060c082019050610b7a6000830189610ac6565b610b876020830188610ac6565b8181036040830152610b998187610a45565b90508181036060830152610bad8186610a45565b9050610bbc6080830185610a36565b610bc960a0830184610a36565b979650505050505050565b600060c082019050610be96000830189610ac6565b610bf66020830188610ac6565b8181036040830152610c088187610a7e565b90508181036060830152610c1c8186610a7e565b9050610c2b6080830185610a36565b610c3860a0830184610a36565b979650505050505050565b6000604051905081810181811067ffffffffffffffff82111715610c6657600080fd5b8060405250919050565b600067ffffffffffffffff821115610c8757600080fd5b601f19601f8301169050602081019050919050565b6000819050602082019050919050565b600081519050919050565b600081519050919050565b600081519050919050565b6000602082019050919050565b600082825260208201905092915050565b600082825260208201905092915050565b60008115159050919050565b6000819050919050565b82818337600083830152505050565b60005b83811015610d3f578082015181840152602081019050610d24565b83811115610d4e576000848401525b50505050565b6000601f19601f8301169050919050565b610d6e81610d08565b8114610d7957600080fd5b5056fea365627a7a72315820d9305ea1e28f1159f93eb661de3e76d6365af33a6423d6886ab5a9fbdafd29536c6578706572696d656e74616cf564736f6c63430005100040",
  "source": "//SPDX-License-Identifier: UNLICENSED\r\npragma experimental ABIEncoderV2;\r\npragma solidity 0.5.16;\r\n\r\ncontract Todo{\r\n\r\n  struct Task{\r\n    uint id;\r\n    uint date;\r\n    string content;\r\n    string author;\r\n    bool done;\r\n    bool updated;\r\n  }\r\n\r\n  uint public lastTaskId;\r\n  uint[] taskIds;\r\n  mapping(uint=>Task) public  tasks;\r\n  event TaskCreated(uint,uint,string,string);\r\n\r\n  constructor() public{\r\n    lastTaskId=0;\r\n  }\r\n\r\n  function createTask(string memory _content,string memory _author) public {\r\n    tasks[lastTaskId]=Task(lastTaskId,block.timestamp,_content,_author,false,false);\r\n    taskIds.push(lastTaskId);\r\n    emit TaskCreated(lastTaskId,block.timestamp,_content,_author);\r\n    lastTaskId++;\r\n  }\r\n\r\n  function getTask(uint _id) public view returns(\r\n    uint,\r\n    uint,\r\n    string memory,\r\n    string memory,\r\n    bool,\r\n    bool\r\n  ){\r\n    return (\r\n      _id,\r\n      tasks[_id].date,\r\n      tasks[_id].content,\r\n      tasks[_id].author,\r\n      tasks[_id].done,\r\n      tasks[_id].updated\r\n    );\r\n  }\r\n\r\n  function getTaskIds() public view returns(uint[] memory){\r\n    return taskIds;\r\n  }\r\n  \r\n  function done(uint _id) public {\r\n    tasks[_id].done=true;\r\n  }\r\n  function update(uint _id,string memory _content) public{\r\n    tasks[_id].content=_content;\r\n    tasks[_id].date=block.timestamp;\r\n    tasks[_id].updated=true;\r\n  }\r\n}\r\n",
  "sourcePath": "C:\\Users\\ACT\\Desktop\\react-DTodo\\contracts\\Todo.sol",
  "compiler": {
    "name": "solc",
    "version": "0.5.16+commit.9c3226ce.Emscripten.clang"
  },
  "schemaVersion": "3.4.4",
  "updatedAt": "2022-02-10T05:00:42.693Z",
  "networkType": "ethereum",
  "devdoc": {
    "methods": {}
  },
  "userdoc": {
    "methods": {}
  }
}